{
  "contractName": "Election",
  "abi": [
    {
      "inputs": [
        {
          "internalType": "address",
          "name": "owner",
          "type": "address"
        },
        {
          "internalType": "string",
          "name": "desc",
          "type": "string"
        }
      ],
      "payable": false,
      "stateMutability": "nonpayable",
      "type": "constructor"
    },
    {
      "anonymous": false,
      "inputs": [
        {
          "indexed": false,
          "internalType": "uint256",
          "name": "candidateID",
          "type": "uint256"
        },
        {
          "indexed": false,
          "internalType": "string",
          "name": "candidateName",
          "type": "string"
        },
        {
          "indexed": false,
          "internalType": "string",
          "name": "candidateRegNo",
          "type": "string"
        }
      ],
      "name": "AddedACandidate",
      "type": "event"
    },
    {
      "anonymous": false,
      "inputs": [
        {
          "indexed": false,
          "internalType": "address",
          "name": "voter",
          "type": "address"
        }
      ],
      "name": "AddedAVoter",
      "type": "event"
    },
    {
      "anonymous": false,
      "inputs": [
        {
          "indexed": false,
          "internalType": "enum Election.State",
          "name": "election_state",
          "type": "uint8"
        }
      ],
      "name": "ElectionEnd",
      "type": "event"
    },
    {
      "anonymous": false,
      "inputs": [
        {
          "indexed": false,
          "internalType": "string",
          "name": "name",
          "type": "string"
        },
        {
          "indexed": false,
          "internalType": "enum Election.State",
          "name": "election_state",
          "type": "uint8"
        }
      ],
      "name": "ElectionStart",
      "type": "event"
    },
    {
      "anonymous": false,
      "inputs": [
        {
          "indexed": false,
          "internalType": "uint256",
          "name": "candidateId",
          "type": "uint256"
        }
      ],
      "name": "VotedSuccessfully",
      "type": "event"
    },
    {
      "constant": true,
      "inputs": [],
      "name": "admin",
      "outputs": [
        {
          "internalType": "address",
          "name": "",
          "type": "address"
        }
      ],
      "payable": false,
      "stateMutability": "view",
      "type": "function"
    },
    {
      "constant": true,
      "inputs": [],
      "name": "candidate_count",
      "outputs": [
        {
          "internalType": "uint256",
          "name": "",
          "type": "uint256"
        }
      ],
      "payable": false,
      "stateMutability": "view",
      "type": "function"
    },
    {
      "constant": true,
      "inputs": [],
      "name": "description",
      "outputs": [
        {
          "internalType": "string",
          "name": "",
          "type": "string"
        }
      ],
      "payable": false,
      "stateMutability": "view",
      "type": "function"
    },
    {
      "constant": true,
      "inputs": [],
      "name": "electionName",
      "outputs": [
        {
          "internalType": "string",
          "name": "",
          "type": "string"
        }
      ],
      "payable": false,
      "stateMutability": "view",
      "type": "function"
    },
    {
      "constant": true,
      "inputs": [],
      "name": "voter_count",
      "outputs": [
        {
          "internalType": "uint256",
          "name": "",
          "type": "uint256"
        }
      ],
      "payable": false,
      "stateMutability": "view",
      "type": "function"
    },
    {
      "constant": true,
      "inputs": [],
      "name": "checkState",
      "outputs": [
        {
          "internalType": "string",
          "name": "state",
          "type": "string"
        }
      ],
      "payable": false,
      "stateMutability": "view",
      "type": "function"
    },
    {
      "constant": false,
      "inputs": [
        {
          "internalType": "string",
          "name": "_name",
          "type": "string"
        },
        {
          "internalType": "string",
          "name": "_regNo",
          "type": "string"
        },
        {
          "internalType": "address",
          "name": "owner",
          "type": "address"
        }
      ],
      "name": "addCandidate",
      "outputs": [],
      "payable": false,
      "stateMutability": "nonpayable",
      "type": "function"
    },
    {
      "constant": false,
      "inputs": [
        {
          "internalType": "address",
          "name": "_voter",
          "type": "address"
        },
        {
          "internalType": "string",
          "name": "name",
          "type": "string"
        },
        {
          "internalType": "string",
          "name": "regNo",
          "type": "string"
        },
        {
          "internalType": "address",
          "name": "owner",
          "type": "address"
        }
      ],
      "name": "addVoter",
      "outputs": [],
      "payable": false,
      "stateMutability": "nonpayable",
      "type": "function"
    },
    {
      "constant": false,
      "inputs": [
        {
          "internalType": "string",
          "name": "name",
          "type": "string"
        },
        {
          "internalType": "address",
          "name": "owner",
          "type": "address"
        }
      ],
      "name": "startElection",
      "outputs": [],
      "payable": false,
      "stateMutability": "nonpayable",
      "type": "function"
    },
    {
      "constant": true,
      "inputs": [],
      "name": "getElectiondetails",
      "outputs": [
        {
          "internalType": "string",
          "name": "name",
          "type": "string"
        },
        {
          "internalType": "string",
          "name": "state",
          "type": "string"
        }
      ],
      "payable": false,
      "stateMutability": "view",
      "type": "function"
    },
    {
      "constant": true,
      "inputs": [
        {
          "internalType": "uint256",
          "name": "_ID",
          "type": "uint256"
        }
      ],
      "name": "displayCandidate",
      "outputs": [
        {
          "internalType": "uint256",
          "name": "id",
          "type": "uint256"
        },
        {
          "internalType": "string",
          "name": "name",
          "type": "string"
        },
        {
          "internalType": "string",
          "name": "regNo",
          "type": "string"
        }
      ],
      "payable": false,
      "stateMutability": "view",
      "type": "function"
    },
    {
      "constant": true,
      "inputs": [],
      "name": "showWinner",
      "outputs": [
        {
          "internalType": "string",
          "name": "name",
          "type": "string"
        },
        {
          "internalType": "uint256",
          "name": "id",
          "type": "uint256"
        },
        {
          "internalType": "uint256",
          "name": "votes",
          "type": "uint256"
        }
      ],
      "payable": false,
      "stateMutability": "view",
      "type": "function"
    },
    {
      "constant": false,
      "inputs": [
        {
          "internalType": "uint256",
          "name": "_ID",
          "type": "uint256"
        },
        {
          "internalType": "address",
          "name": "owner",
          "type": "address"
        }
      ],
      "name": "vote",
      "outputs": [],
      "payable": false,
      "stateMutability": "nonpayable",
      "type": "function"
    },
    {
      "constant": false,
      "inputs": [
        {
          "internalType": "address",
          "name": "owner",
          "type": "address"
        }
      ],
      "name": "endElection",
      "outputs": [],
      "payable": false,
      "stateMutability": "nonpayable",
      "type": "function"
    },
    {
      "constant": true,
      "inputs": [
        {
          "internalType": "uint256",
          "name": "_ID",
          "type": "uint256"
        }
      ],
      "name": "showResults",
      "outputs": [
        {
          "internalType": "uint256",
          "name": "id",
          "type": "uint256"
        },
        {
          "internalType": "string",
          "name": "name",
          "type": "string"
        },
        {
          "internalType": "string",
          "name": "regNo",
          "type": "string"
        },
        {
          "internalType": "uint256",
          "name": "count",
          "type": "uint256"
        }
      ],
      "payable": false,
      "stateMutability": "view",
      "type": "function"
    },
    {
      "constant": true,
      "inputs": [
        {
          "internalType": "uint256",
          "name": "ID",
          "type": "uint256"
        },
        {
          "internalType": "address",
          "name": "owner",
          "type": "address"
        }
      ],
      "name": "getVoter",
      "outputs": [
        {
          "internalType": "uint256",
          "name": "id",
          "type": "uint256"
        },
        {
          "internalType": "address",
          "name": "voterAddress",
          "type": "address"
        },
        {
          "internalType": "uint256",
          "name": "weight",
          "type": "uint256"
        }
      ],
      "payable": false,
      "stateMutability": "view",
      "type": "function"
    },
    {
      "constant": true,
      "inputs": [
        {
          "internalType": "address",
          "name": "voterAddress",
          "type": "address"
        }
      ],
      "name": "voterProfile",
      "outputs": [
        {
          "internalType": "uint256",
          "name": "id",
          "type": "uint256"
        },
        {
          "internalType": "string",
          "name": "voterName",
          "type": "string"
        },
        {
          "internalType": "string",
          "name": "voterReg",
          "type": "string"
        },
        {
          "internalType": "uint256",
          "name": "weight",
          "type": "uint256"
        },
        {
          "internalType": "uint256",
          "name": "votedTowards",
          "type": "uint256"
        },
        {
          "internalType": "string",
          "name": "name",
          "type": "string"
        }
      ],
      "payable": false,
      "stateMutability": "view",
      "type": "function"
    }
  ],
  "bytecode": "0x60806040523480156200001157600080fd5b5060405162002c8838038062002c88833981810160405260408110156200003757600080fd5b8101908080519060200190929190805160405193929190846401000000008211156200006257600080fd5b838201915060208201858111156200007957600080fd5b82518660018202830111640100000000821117156200009757600080fd5b8083526020830192505050908051906020019080838360005b83811015620000cd578082015181840152602081019050620000b0565b50505050905090810190601f168015620000fb5780820380516001836020036101000a031916815260200191505b5060405250505081600460006101000a81548173ffffffffffffffffffffffffffffffffffffffff021916908373ffffffffffffffffffffffffffffffffffffffff1602179055506000600460146101000a81548160ff021916908360028111156200016357fe5b021790555080600590805190602001906200018092919062000189565b50505062000238565b828054600181600116156101000203166002900490600052602060002090601f016020900481019282601f10620001cc57805160ff1916838001178555620001fd565b82800160010185558215620001fd579182015b82811115620001fc578251825591602001919060010190620001df565b5b5090506200020c919062000210565b5090565b6200023591905b808211156200023157600081600090555060010162000217565b5090565b90565b612a4080620002486000396000f3fe608060405234801561001057600080fd5b5060043610610128576000357c0100000000000000000000000000000000000000000000000000000000900480638dc83771116100bf578063beb604e01161008e578063beb604e01461092f578063e445b8171461094d578063e87f8c6014610af7578063f32feedc14610c89578063f851a44014610d6457610128565b80638dc83771146106655780638f47b1461461077f57806396dfcbea1461081b578063b7e032641461089e57610128565b806360169d4f116100fb57806360169d4f1461034f5780637284e4161461043e57806379614b2e146104c157806385e8e7a7146105e257610128565b806302d947ef1461012d57806307e4b70a1461017b5780630b32ff77146101bf5780634b1c4c2914610331575b600080fd5b6101796004803603604081101561014357600080fd5b8101908080359060200190929190803573ffffffffffffffffffffffffffffffffffffffff169060200190929190505050610dae565b005b6101bd6004803603602081101561019157600080fd5b81019080803573ffffffffffffffffffffffffffffffffffffffff169060200190929190505050611113565b005b61032f600480360360608110156101d557600080fd5b81019080803590602001906401000000008111156101f257600080fd5b82018360208201111561020457600080fd5b8035906020019184600183028401116401000000008311171561022657600080fd5b91908080601f016020809104026020016040519081016040528093929190818152602001838380828437600081840152601f19601f8201169050808301925050505050505091929192908035906020019064010000000081111561028957600080fd5b82018360208201111561029b57600080fd5b803590602001918460018302840111640100000000831117156102bd57600080fd5b91908080601f016020809104026020016040519081016040528093929190818152602001838380828437600081840152601f19601f820116905080830192505050505050509192919290803573ffffffffffffffffffffffffffffffffffffffff169060200190929190505050611236565b005b61033961149c565b6040518082815260200191505060405180910390f35b6103576114a2565b604051808060200180602001838103835285818151815260200191508051906020019080838360005b8381101561039b578082015181840152602081019050610380565b50505050905090810190601f1680156103c85780820380516001836020036101000a031916815260200191505b50838103825284818151815260200191508051906020019080838360005b838110156104015780820151818401526020810190506103e6565b50505050905090810190601f16801561042e5780820380516001836020036101000a031916815260200191505b5094505050505060405180910390f35b610446611553565b6040518080602001828103825283818151815260200191508051906020019080838360005b8381101561048657808201518184015260208101905061046b565b50505050905090810190601f1680156104b35780820380516001836020036101000a031916815260200191505b509250505060405180910390f35b6104ed600480360360208110156104d757600080fd5b81019080803590602001909291905050506115f1565b604051808581526020018060200180602001848152602001838103835286818151815260200191508051906020019080838360005b8381101561053d578082015181840152602081019050610522565b50505050905090810190601f16801561056a5780820380516001836020036101000a031916815260200191505b50838103825285818151815260200191508051906020019080838360005b838110156105a3578082015181840152602081019050610588565b50505050905090810190601f1680156105d05780820380516001836020036101000a031916815260200191505b50965050505050505060405180910390f35b6105ea611780565b6040518080602001828103825283818151815260200191508051906020019080838360005b8381101561062a57808201518184015260208101905061060f565b50505050905090810190601f1680156106575780820380516001836020036101000a031916815260200191505b509250505060405180910390f35b6106916004803603602081101561067b57600080fd5b810190808035906020019092919050505061181e565b604051808481526020018060200180602001838103835285818151815260200191508051906020019080838360005b838110156106db5780820151818401526020810190506106c0565b50505050905090810190601f1680156107085780820380516001836020036101000a031916815260200191505b50838103825284818151815260200191508051906020019080838360005b83811015610741578082015181840152602081019050610726565b50505050905090810190601f16801561076e5780820380516001836020036101000a031916815260200191505b509550505050505060405180910390f35b6107cb6004803603604081101561079557600080fd5b8101908080359060200190929190803573ffffffffffffffffffffffffffffffffffffffff1690602001909291905050506119ab565b604051808481526020018373ffffffffffffffffffffffffffffffffffffffff1673ffffffffffffffffffffffffffffffffffffffff168152602001828152602001935050505060405180910390f35b610823611b0e565b6040518080602001828103825283818151815260200191508051906020019080838360005b83811015610863578082015181840152602081019050610848565b50505050905090810190601f1680156108905780820380516001836020036101000a031916815260200191505b509250505060405180910390f35b6108a6611c54565b6040518080602001848152602001838152602001828103825285818151815260200191508051906020019080838360005b838110156108f25780820151818401526020810190506108d7565b50505050905090810190601f16801561091f5780820380516001836020036101000a031916815260200191505b5094505050505060405180910390f35b610937611df0565b6040518082815260200191505060405180910390f35b61098f6004803603602081101561096357600080fd5b81019080803573ffffffffffffffffffffffffffffffffffffffff169060200190929190505050611df6565b60405180878152602001806020018060200186815260200185815260200180602001848103845289818151815260200191508051906020019080838360005b838110156109e95780820151818401526020810190506109ce565b50505050905090810190601f168015610a165780820380516001836020036101000a031916815260200191505b50848103835288818151815260200191508051906020019080838360005b83811015610a4f578082015181840152602081019050610a34565b50505050905090810190601f168015610a7c5780820380516001836020036101000a031916815260200191505b50848103825285818151815260200191508051906020019080838360005b83811015610ab5578082015181840152602081019050610a9a565b50505050905090810190601f168015610ae25780820380516001836020036101000a031916815260200191505b50995050505050505050505060405180910390f35b610c8760048036036080811015610b0d57600080fd5b81019080803573ffffffffffffffffffffffffffffffffffffffff16906020019092919080359060200190640100000000811115610b4a57600080fd5b820183602082011115610b5c57600080fd5b80359060200191846001830284011164010000000083111715610b7e57600080fd5b91908080601f016020809104026020016040519081016040528093929190818152602001838380828437600081840152601f19601f82011690508083019250505050505050919291929080359060200190640100000000811115610be157600080fd5b820183602082011115610bf357600080fd5b80359060200191846001830284011164010000000083111715610c1557600080fd5b91908080601f016020809104026020016040519081016040528093929190818152602001838380828437600081840152601f19601f820116905080830192505050505050509192919290803573ffffffffffffffffffffffffffffffffffffffff1690602001909291905050506122d1565b005b610d6260048036036040811015610c9f57600080fd5b8101908080359060200190640100000000811115610cbc57600080fd5b820183602082011115610cce57600080fd5b80359060200191846001830284011164010000000083111715610cf057600080fd5b91908080601f016020809104026020016040519081016040528093929190818152602001838380828437600081840152601f19601f820116905080830192505050505050509192919290803573ffffffffffffffffffffffffffffffffffffffff169060200190929190505050612697565b005b610d6c61285d565b604051808273ffffffffffffffffffffffffffffffffffffffff1673ffffffffffffffffffffffffffffffffffffffff16815260200191505060405180910390f35b60016002811115610dbb57fe5b600460149054906101000a900460ff166002811115610dd657fe5b14610e2c576040517f08c379a000000000000000000000000000000000000000000000000000000000815260040180806020018281038252602c8152602001806129a2602c913960400191505060405180910390fd5b80600160008273ffffffffffffffffffffffffffffffffffffffff1673ffffffffffffffffffffffffffffffffffffffff16815260200190815260200160002060020160019054906101000a900460ff1615610ef0576040517f08c379a00000000000000000000000000000000000000000000000000000000081526004018080602001828103825260188152602001807f566f7465722068617320616c726561647920766f7465642e000000000000000081525060200191505060405180910390fd5b6000600160008373ffffffffffffffffffffffffffffffffffffffff1673ffffffffffffffffffffffffffffffffffffffff1681526020019081526020016000206003015411610f8b576040517f08c379a000000000000000000000000000000000000000000000000000000000815260040180806020018281038252603e8152602001806129ce603e913960400191505060405180910390fd5b60018060008473ffffffffffffffffffffffffffffffffffffffff1673ffffffffffffffffffffffffffffffffffffffff16815260200190815260200160002060020160016101000a81548160ff02191690831515021790555082600160008473ffffffffffffffffffffffffffffffffffffffff1673ffffffffffffffffffffffffffffffffffffffff16815260200190815260200160002060040181905550600160008373ffffffffffffffffffffffffffffffffffffffff1673ffffffffffffffffffffffffffffffffffffffff1681526020019081526020016000206003015460036000858152602001908152602001600020600082825401925050819055506000600160008473ffffffffffffffffffffffffffffffffffffffff1673ffffffffffffffffffffffffffffffffffffffff168152602001908152602001600020600301819055507fb998094ae4cb22a6f07f376f832cf3a023584fe7eeb630d06786614616da3d55836040518082815260200191505060405180910390a1505050565b80600460009054906101000a900473ffffffffffffffffffffffffffffffffffffffff1673ffffffffffffffffffffffffffffffffffffffff168173ffffffffffffffffffffffffffffffffffffffff16146111ba576040517f08c379a00000000000000000000000000000000000000000000000000000000081526004018080602001828103825260348152602001806129296034913960400191505060405180910390fd5b6002600460146101000a81548160ff021916908360028111156111d957fe5b02179055507f0fd6091d4bdaaad907e13471c108ad8a941c3947c3d6917d96d09632e0d50896600460149054906101000a900460ff166040518082600281111561121f57fe5b60ff16815260200191505060405180910390a15050565b80600460009054906101000a900473ffffffffffffffffffffffffffffffffffffffff1673ffffffffffffffffffffffffffffffffffffffff168173ffffffffffffffffffffffffffffffffffffffff16146112dd576040517f08c379a00000000000000000000000000000000000000000000000000000000081526004018080602001828103825260348152602001806129296034913960400191505060405180910390fd5b6007600081548092919060010191905055506007546002600060075481526020019081526020016000206000018190555083600260006007548152602001908152602001600020600101908051906020019061133a929190612883565b50826002600060075481526020019081526020016000206002019080519060200190611367929190612883565b506000600360006007548152602001908152602001600020819055507ffc34c9359c5b9595266fd63d772032963fc05127a4ecaa3351593fba44780b416007548585604051808481526020018060200180602001838103835285818151815260200191508051906020019080838360005b838110156113f35780820151818401526020810190506113d8565b50505050905090810190601f1680156114205780820380516001836020036101000a031916815260200191505b50838103825284818151815260200191508051906020019080838360005b8381101561145957808201518184015260208101905061143e565b50505050905090810190601f1680156114865780820380516001836020036101000a031916815260200191505b509550505050505060405180910390a150505050565b60075481565b60608060066114af611b0e565b818054600181600116156101000203166002900480601f0160208091040260200160405190810160405280929190818152602001828054600181600116156101000203166002900480156115445780601f1061151957610100808354040283529160200191611544565b820191906000526020600020905b81548152906001019060200180831161152757829003601f168201915b50505050509150915091509091565b60058054600181600116156101000203166002900480601f0160208091040260200160405190810160405280929190818152602001828054600181600116156101000203166002900480156115e95780601f106115be576101008083540402835291602001916115e9565b820191906000526020600020905b8154815290600101906020018083116115cc57829003601f168201915b505050505081565b600060608060008460026000878152602001908152602001600020600101600260008881526020019081526020016000206002016003600089815260200190815260200160002054828054600181600116156101000203166002900480601f0160208091040260200160405190810160405280929190818152602001828054600181600116156101000203166002900480156116ce5780601f106116a3576101008083540402835291602001916116ce565b820191906000526020600020905b8154815290600101906020018083116116b157829003601f168201915b50505050509250818054600181600116156101000203166002900480601f01602080910402602001604051908101604052809291908181526020018280546001816001161561010002031660029004801561176a5780601f1061173f5761010080835404028352916020019161176a565b820191906000526020600020905b81548152906001019060200180831161174d57829003601f168201915b5050505050915093509350935093509193509193565b60068054600181600116156101000203166002900480601f0160208091040260200160405190810160405280929190818152602001828054600181600116156101000203166002900480156118165780601f106117eb57610100808354040283529160200191611816565b820191906000526020600020905b8154815290600101906020018083116117f957829003601f168201915b505050505081565b600060608060026000858152602001908152602001600020600001546002600086815260200190815260200160002060010160026000878152602001908152602001600020600201818054600181600116156101000203166002900480601f0160208091040260200160405190810160405280929190818152602001828054600181600116156101000203166002900480156118fb5780601f106118d0576101008083540402835291602001916118fb565b820191906000526020600020905b8154815290600101906020018083116118de57829003601f168201915b50505050509150808054600181600116156101000203166002900480601f0160208091040260200160405190810160405280929190818152602001828054600181600116156101000203166002900480156119975780601f1061196c57610100808354040283529160200191611997565b820191906000526020600020905b81548152906001019060200180831161197a57829003601f168201915b505050505090509250925092509193909250565b600080600083600460009054906101000a900473ffffffffffffffffffffffffffffffffffffffff1673ffffffffffffffffffffffffffffffffffffffff168173ffffffffffffffffffffffffffffffffffffffff1614611a57576040517f08c379a00000000000000000000000000000000000000000000000000000000081526004018080602001828103825260348152602001806129296034913960400191505060405180910390fd5b8560008088815260200190815260200160002060009054906101000a900473ffffffffffffffffffffffffffffffffffffffff16600160008060008b815260200190815260200160002060009054906101000a900473ffffffffffffffffffffffffffffffffffffffff1673ffffffffffffffffffffffffffffffffffffffff1673ffffffffffffffffffffffffffffffffffffffff16815260200190815260200160002060030154935093509350509250925092565b606060006002811115611b1d57fe5b600460149054906101000a900460ff166002811115611b3857fe5b1415611b7b576040518060400160405280600781526020017f43524541544544000000000000000000000000000000000000000000000000008152509050611c51565b60016002811115611b8857fe5b600460149054906101000a900460ff166002811115611ba357fe5b1415611be6576040518060400160405280600781526020017f4f4e474f494e47000000000000000000000000000000000000000000000000008152509050611c51565b600280811115611bf257fe5b600460149054906101000a900460ff166002811115611c0d57fe5b1415611c50576040518060400160405280600981526020017f434f4e434c5544454400000000000000000000000000000000000000000000008152509050611c51565b5b90565b6060600080600280811115611c6557fe5b600460149054906101000a900460ff166002811115611c8057fe5b14611cd6576040517f08c379a000000000000000000000000000000000000000000000000000000000815260040180806020018281038252602381526020018061295d6023913960400191505060405180910390fd5b60008060606000600190505b6007548111611dde578360036000838152602001908152602001600020541115611dd157600260008281526020019081526020016000206001018054600181600116156101000203166002900480601f016020809104026020016040519081016040528092919081815260200182805460018160011615610100020316600290048015611db05780601f10611d8557610100808354040283529160200191611db0565b820191906000526020600020905b815481529060010190602001808311611d9357829003601f168201915b50505050509150809250600360008281526020019081526020016000205493505b8080600101915050611ce2565b50808284955095509550505050909192565b60085481565b600060608060008060606000600190505b60085481116122c65760008082815260200190815260200160002060009054906101000a900473ffffffffffffffffffffffffffffffffffffffff1673ffffffffffffffffffffffffffffffffffffffff168873ffffffffffffffffffffffffffffffffffffffff1614156122b957806001600080600085815260200190815260200160002060009054906101000a900473ffffffffffffffffffffffffffffffffffffffff1673ffffffffffffffffffffffffffffffffffffffff1673ffffffffffffffffffffffffffffffffffffffff1681526020019081526020016000206000016001600080600086815260200190815260200160002060009054906101000a900473ffffffffffffffffffffffffffffffffffffffff1673ffffffffffffffffffffffffffffffffffffffff1673ffffffffffffffffffffffffffffffffffffffff1681526020019081526020016000206001016001600080600087815260200190815260200160002060009054906101000a900473ffffffffffffffffffffffffffffffffffffffff1673ffffffffffffffffffffffffffffffffffffffff1673ffffffffffffffffffffffffffffffffffffffff168152602001908152602001600020600301546001600080600088815260200190815260200160002060009054906101000a900473ffffffffffffffffffffffffffffffffffffffff1673ffffffffffffffffffffffffffffffffffffffff1673ffffffffffffffffffffffffffffffffffffffff1681526020019081526020016000206004015460026000600160008060008b815260200190815260200160002060009054906101000a900473ffffffffffffffffffffffffffffffffffffffff1673ffffffffffffffffffffffffffffffffffffffff1673ffffffffffffffffffffffffffffffffffffffff168152602001908152602001600020600401548152602001908152602001600020600101848054600181600116156101000203166002900480601f0160208091040260200160405190810160405280929190818152602001828054600181600116156101000203166002900480156121685780601f1061213d57610100808354040283529160200191612168565b820191906000526020600020905b81548152906001019060200180831161214b57829003601f168201915b50505050509450838054600181600116156101000203166002900480601f0160208091040260200160405190810160405280929190818152602001828054600181600116156101000203166002900480156122045780601f106121d957610100808354040283529160200191612204565b820191906000526020600020905b8154815290600101906020018083116121e757829003601f168201915b50505050509350808054600181600116156101000203166002900480601f0160208091040260200160405190810160405280929190818152602001828054600181600116156101000203166002900480156122a05780601f10612275576101008083540402835291602001916122a0565b820191906000526020600020905b81548152906001019060200180831161228357829003601f168201915b50505050509050965096509650965096509650506122c8565b8080600101915050611e07565b505b91939550919395565b80600460009054906101000a900473ffffffffffffffffffffffffffffffffffffffff1673ffffffffffffffffffffffffffffffffffffffff168173ffffffffffffffffffffffffffffffffffffffff1614612378576040517f08c379a00000000000000000000000000000000000000000000000000000000081526004018080602001828103825260348152602001806129296034913960400191505060405180910390fd5b84600160008273ffffffffffffffffffffffffffffffffffffffff1673ffffffffffffffffffffffffffffffffffffffff16815260200190815260200160002060020160019054906101000a900460ff161580156124235750600160008273ffffffffffffffffffffffffffffffffffffffff1673ffffffffffffffffffffffffffffffffffffffff16815260200190815260200160002060020160009054906101000a900460ff16155b612478576040517f08c379a00000000000000000000000000000000000000000000000000000000081526004018080602001828103825260228152602001806129806022913960400191505060405180910390fd5b60086000815480929190600101919050555085600080600854815260200190815260200160002060006101000a81548173ffffffffffffffffffffffffffffffffffffffff021916908373ffffffffffffffffffffffffffffffffffffffff16021790555084600160008873ffffffffffffffffffffffffffffffffffffffff1673ffffffffffffffffffffffffffffffffffffffff1681526020019081526020016000206000019080519060200190612533929190612883565b5083600160008873ffffffffffffffffffffffffffffffffffffffff1673ffffffffffffffffffffffffffffffffffffffff168152602001908152602001600020600101908051906020019061258a929190612883565b5060018060008873ffffffffffffffffffffffffffffffffffffffff1673ffffffffffffffffffffffffffffffffffffffff1681526020019081526020016000206003018190555060018060008873ffffffffffffffffffffffffffffffffffffffff1673ffffffffffffffffffffffffffffffffffffffff16815260200190815260200160002060020160006101000a81548160ff0219169083151502179055507f973f11f33f84e792db77674e488c69e4d180b4a4a7d946d8d29a1eae3023a76686604051808273ffffffffffffffffffffffffffffffffffffffff1673ffffffffffffffffffffffffffffffffffffffff16815260200191505060405180910390a1505050505050565b80600460009054906101000a900473ffffffffffffffffffffffffffffffffffffffff1673ffffffffffffffffffffffffffffffffffffffff168173ffffffffffffffffffffffffffffffffffffffff161461273e576040517f08c379a00000000000000000000000000000000000000000000000000000000081526004018080602001828103825260348152602001806129296034913960400191505060405180910390fd5b8260069080519060200190612754929190612883565b506001600460146101000a81548160ff0219169083600281111561277457fe5b02179055507f71b1d1f06f0d8676ec9e00dc5b414be5f4b0810f146a5f848f831c2a0cd4fd276006600460149054906101000a900460ff1660405180806020018360028111156127c057fe5b60ff1681526020018281038252848181546001816001161561010002031660029004815260200191508054600181600116156101000203166002900480156128495780601f1061281e57610100808354040283529160200191612849565b820191906000526020600020905b81548152906001019060200180831161282c57829003601f168201915b5050935050505060405180910390a1505050565b600460009054906101000a900473ffffffffffffffffffffffffffffffffffffffff1681565b828054600181600116156101000203166002900490600052602060002090601f016020900481019282601f106128c457805160ff19168380011785556128f2565b828001600101855582156128f2579182015b828111156128f15782518255916020019190600101906128d6565b5b5090506128ff9190612903565b5090565b61292591905b80821115612921576000816000905550600101612909565b5090565b9056fe4f6e6c792074686520656c656374696f6e2061646d696e206861732061636365737320746f20746869732066756e6374696f6e2e54686520656c656374696f6e20686173206e6f7420636f6e636c75646564207965742e566f7465722068617320616c7265616479206265656e20726567697374657265642e456c656374696f6e206973206e6f7420616374697665206f72206f6e676f696e672063757272656e746c792e566f74657220686173206e6f74206265656e2072656769737465726564206f7220616c72656164792064656c65676174656420746865697220766f74652ea265627a7a72315820ece3310a7cb38bd272a27e27870eec81493df42ed187ad490f73d079bfba741c64736f6c63430005100032",
  "source": "\r\n\r\n\r\n// SPDX-License-Identifier: MIT\r\npragma solidity >=0.4.22 <0.9.0;\r\ncontract Election {\r\n    //Structure that represents a registered voter in the election\r\n    struct Voter {\r\n        string name;\r\n        string regNo;\r\n        bool isRegistered;\r\n        bool hasVoted; //Whether or not the voter has voted yet\r\n        uint256 weight; // Weight of the Voter\r\n        uint256 voteTowards; //States the candidate's ID to which the voter has voted//States the candidate's ID to which the voter has voted\r\n    }\r\n    //Structure that represents a registered candidate in the election\r\n    struct Candidate {\r\n        uint256 ID; // The unique ID of the candidate\r\n        string name;\r\n        string regNo;// Name of the candidate\r\n\r\n    }\r\n\r\n\r\n    mapping(uint => address) private voterID; // VoterID mapped to voter address\r\n    mapping(address => Voter) private voters; //address of voter mapped to the voter struct - To view all registered voters\r\n    mapping(uint256 => Candidate) private candidates; // ID of candidate mapped to the candidate struct - To view details of all registered candidates\r\n    mapping(uint256 => uint256) private voteCount;// ID of the candidate mapped to the votes of the candidate privately\r\n\r\n\r\n    address public admin; // The address of the official/authority conducting the election\r\n\r\n    enum State {CREATED, ONGOING, CONCLUDED}\r\n    /*This enum represents the state of the election -\r\n    CREATED - The election contract has been created, voting has not begun yet\r\n    ONGOING - The voting has begun and is currently active\r\n    STOP - The voting period has ended and it is time for counting\r\n    */\r\n\r\n    State  electionState; // A variable of the type enum State to represent the election state\r\n    string public description;\r\n    string public electionName;\r\n    uint256 public candidate_count;    // Keeps a count of the registered candidates\r\n    uint256 public voter_count;\r\n    //modifier to check if the address is of the admin's as several functions can only be accessed by the admin\r\n    modifier checkAdmin(address owner) {\r\n        require(\r\n            owner == admin, \"Only the election admin has access to this function.\"\r\n        );\r\n        _;\r\n    }\r\n\r\n    //modifiers to check for the states of the election\r\n    modifier checkIfCreated() {\r\n        require(\r\n            electionState == State.CREATED, \"The election is either ongoing or has concluded.\"\r\n        );\r\n        _;\r\n    }\r\n\r\n    modifier checkIfOngoing() {\r\n        require(\r\n            electionState == State.ONGOING, \"Election is not active or ongoing currently.\"\r\n        );\r\n        _;\r\n    }\r\n\r\n    modifier checkIfComplete() {\r\n        require(electionState == State.CONCLUDED, \"The election has not concluded yet.\");\r\n        _;\r\n    }\r\n\r\n    modifier checkNotComplete() {\r\n        require(electionState != State.CONCLUDED, \"The election has concluded.\");\r\n        _;\r\n    }\r\n\r\n    //modifier to check if a voter is a valid voter\r\n    modifier checkIfVoterValid(address owner) {\r\n        require(\r\n            !voters[owner].hasVoted,\r\n            \"Voter has already voted.\"\r\n        );\r\n        require(\r\n            voters[owner].weight > 0,\r\n            \"Voter has not been registered or already delegated their vote.\"\r\n        );\r\n        _;\r\n    }\r\n\r\n    //modifier to check if the candidate being voted for is a valid candidate\r\n    modifier checkIfCandidateValid(uint256 _candidateId) {\r\n        require(\r\n            _candidateId > 0 && _candidateId <= candidate_count,\r\n            \"Invalid candidate.\"\r\n        );\r\n        _;\r\n    }\r\n\r\n    //modifier to check if the person is not an admin\r\n    modifier checkNotAdmin(address owner) {\r\n        require(\r\n            owner != admin,\r\n            \"The election admin is not allowed to access this function.\"\r\n        );\r\n        _;\r\n    }\r\n\r\n    //modifier to check if the voter is not yet registered for the addVoter function\r\n    modifier checkNotRegistered(address voter) {\r\n        require(\r\n            !voters[voter].hasVoted && !voters[voter].isRegistered,\r\n            \"Voter has already been registered.\"\r\n        );\r\n        _;\r\n    }\r\n\r\n    //events to be logged into the blockchain\r\n    event AddedAVoter(address voter);\r\n    event VotedSuccessfully(uint256 candidateId);\r\n    event ElectionStart(string name,State election_state);\r\n    event ElectionEnd(State election_state);\r\n    event AddedACandidate(uint candidateID, string candidateName, string candidateRegNo);\r\n\r\n\r\n    // Initialization\r\n    constructor(address owner, string memory desc) public{\r\n        admin = owner;\r\n        electionState = State.CREATED; // Setting Eection state to CREATED\r\n        description = desc;\r\n\r\n    }\r\n\r\n    function checkState() public view returns (string memory state)\r\n    {\r\n        if(electionState == State.CREATED)\r\n            return \"CREATED\";\r\n        else if(electionState == State.ONGOING)\r\n            return \"ONGOING\";\r\n        else if(electionState == State.CONCLUDED)\r\n            return \"CONCLUDED\";\r\n    }\r\n    // To Add a candidate\r\n    // Only admin can add and\r\n    // candidate can be added only before election starts\r\n    function addCandidate(string memory _name, string memory _regNo, address owner)\r\n    public\r\n    checkAdmin(owner)\r\n\r\n    {\r\n        candidate_count++;\r\n        candidates[candidate_count].ID = candidate_count;\r\n        candidates[candidate_count].name = _name;\r\n        candidates[candidate_count].regNo = _regNo;\r\n        voteCount[candidate_count] = 0;\r\n        emit AddedACandidate(candidate_count, _name, _regNo);\r\n    }\r\n\r\n    // To add a voter\r\n    // only admin can add\r\n    // can add only before election starts\r\n    // can add a voter only one time\r\n    function addVoter(address _voter,string memory name,string memory regNo, address owner)\r\n    public\r\n    checkAdmin(owner)\r\n    checkNotRegistered(_voter)\r\n\r\n    {\r\n        voter_count++;\r\n        voterID[voter_count] = _voter;\r\n        voters[_voter].name = name;\r\n        voters[_voter].regNo = regNo;\r\n        voters[_voter].weight = 1;\r\n        voters[_voter].isRegistered = true;\r\n        emit AddedAVoter(_voter);\r\n    }\r\n    // setting Election state to ONGOING\r\n    // by admin\r\n    function startElection(string memory name,address owner) public checkAdmin(owner) {\r\n        electionName=name;\r\n\r\n        electionState = State.ONGOING;\r\n\r\n        emit ElectionStart(electionName,electionState);\r\n    }\r\n    function getElectiondetails() public view returns (string memory name,string memory state)\r\n    {\r\n        return(\r\n        electionName,\r\n        checkState()\r\n        );\r\n    }\r\n\r\n\r\n\r\n\r\n    // To display candidates\r\n    function displayCandidate(uint256 _ID)\r\n    public\r\n    view\r\n    returns (\r\n        uint256 id,\r\n        string memory name,\r\n        string memory regNo\r\n    )\r\n    {\r\n        return (\r\n        candidates[_ID].ID,\r\n        candidates[_ID].name,\r\n        candidates[_ID].regNo\r\n        );\r\n    }\r\n\r\n    //Show winner of election\r\n    function showWinner()\r\n    public\r\n    view\r\n    checkIfComplete\r\n    returns (string memory name, uint256 id, uint256 votes)\r\n    {\r\n        uint256 max;\r\n        uint256 maxIndex;\r\n        string memory winner;\r\n        for (uint256 i = 1; i <= candidate_count; i++) {\r\n            if (voteCount[i] > max) {\r\n                winner = candidates[i].name;\r\n                maxIndex = i;\r\n                max = voteCount[i];\r\n            }\r\n        }\r\n        return (winner,maxIndex, max) ;\r\n    }\r\n\r\n\r\n\r\n\r\n    // to cast the vote\r\n    function vote(uint256 _ID, address owner)\r\n    public\r\n    checkIfOngoing\r\n    checkIfVoterValid(owner)\r\n    {\r\n        voters[owner].hasVoted = true;\r\n        voters[owner].voteTowards = _ID;\r\n        voteCount[_ID] += voters[owner].weight;\r\n        voters[owner].weight = 0;\r\n        emit VotedSuccessfully(_ID);\r\n    }\r\n\r\n    // Setting Election state to STOP\r\n    // by admin\r\n    function endElection(address owner) public checkAdmin(owner) {\r\n        electionState = State.CONCLUDED;\r\n        emit ElectionEnd(electionState);\r\n    }\r\n\r\n    // to display result\r\n    function showResults(uint256 _ID)\r\n    public\r\n    view\r\n    returns (\r\n        uint256 id,\r\n        string memory name,\r\n        string memory regNo,\r\n        uint256 count\r\n    )\r\n    {\r\n        return (_ID, candidates[_ID].name, candidates[_ID].regNo,voteCount[_ID]);\r\n    }\r\n\r\n    function getVoter(uint256 ID, address owner)  public view checkAdmin(owner)\r\n    returns (\r\n        uint256 id,\r\n        address voterAddress,\r\n        uint256 weight\r\n    )\r\n    {\r\n        return (\r\n        ID,\r\n        voterID[ID],\r\n        voters[voterID[ID]].weight\r\n        );\r\n    }\r\n\r\n    function voterProfile(address voterAddress) public view\r\n    returns (\r\n        uint256 id,\r\n        string memory voterName,\r\n        string memory voterReg,\r\n        uint256 weight,\r\n        uint256 votedTowards,\r\n        string memory name\r\n    )\r\n    {\r\n\r\n        for(uint256 i = 1; i<= voter_count; i++)\r\n        {\r\n            if(voterAddress == voterID[i])\r\n            {\r\n                return (\r\n                i,\r\n                voters[voterID[i]].name,\r\n                voters[voterID[i]].regNo,\r\n                voters[voterID[i]].weight,\r\n                voters[voterID[i]].voteTowards,\r\n                candidates[voters[voterID[i]].voteTowards].name\r\n                );\r\n            }\r\n        }\r\n    }\r\n}",
  "sourcePath": "E:\\Admin\\FInal_Project\\e_voting_project_final\\contracts\\Election.sol",
  "compiler": {
    "name": "solc",
    "version": "0.5.16+commit.9c3226ce.Emscripten.clang"
  },
  "schemaVersion": "3.4.4",
  "updatedAt": "2022-06-13T05:32:46.624Z",
  "networkType": "ethereum",
  "devdoc": {
    "methods": {}
  },
  "userdoc": {
    "methods": {}
  }
}